:020000041000EA
:1000000000B5324B212058609868022188439860DF
:10001000D860186158612E4B002199600221596106
:100020000121F02299502B49196001219960352056
:1000300000F044F80222904214D00621196600F024
:1000400034F8196E01211966002018661A6600F04E
:100050002CF8196E196E196E052000F02FF8012189
:100060000842F9D1002199601B49196000215960AB
:100070001A491B48016001219960EB211966A021F2
:10008000196600F012F800219960164914480160C1
:100090000121996001BC002800D000471248134993
:1000A000086003C880F30888084703B5996A0420EC
:1000B0000142FBD001200142F8D103BD02B5186610
:1000C0001866FFF7F2FF186E186E02BD00000240BE
:1000D000000000180000070000035F00212200005C
:1000E000F4000018222000A00001001008ED00E03C
:1000F00000000000000000000000000074B24E7A12
:1001000000200420F7010010C3010010C5010010F9
:10011000C1010010C1010010C1010010C101001097
:10012000C1010010C1010010C1010010C701001081
:10013000C1010010C1010010C9010010CB01001065
:10014000CD010010CD010010CD010010CD01001037
:10015000CD010010CD010010CD010010CD01001027
:10016000CD010010CD010010CD010010CD01001017
:10017000CD010010CD010010CD010010CD01001007
:10018000CD010010CD010010CD010010CD010010F7
:10019000CD010010CD010010CD010010CD010010E7
:1001A000CD010010CD010010CD010010CD010010D7
:1001B000CD010010CD010010CD010010CD010010C7
:1001C00000BE00BE00BE00BE00BE00BEEFF3058054
:1001D000103800BEF2EB8871607500108C7500104D
:1001E0003802001090A31AE71E481F49086006C88D
:1001F00081F3088810471D480068002801D019487D
:10020000F3E70DA40ECC002902D000F012F8F9E7B4
:100210001749184A002000E001C19142FCD116495B
:100220008847164988471649884700BEFDE701C937
:1002300001C29A42FBD370478C750010C0000020A9
:10024000B810002084850010000004200000042065
:10025000848500100010042000100420000000001D
:10026000704700000000000008ED00E0000000D032
:10027000B810002094230220E12000107903001020
:10028000D9200010F8B5C04610B5064C2378002BD5
:1002900007D1054B002B02D0044800E000BF01232A
:1002A000237010BD8013002000000000407000107B
:1002B000044B10B5002B03D00349044800E000BFF5
:1002C00010BDC046000000008413002040700010E4
:1002D00070B505000124AC40D02500F09DF82D0636
:1002E000074E6C6296206C61400003F0F1FB962093
:1002F000AC61400003F0ECFB300002F055F8F1E790
:100300004070001070B505000124AC40D02500F00D
:1003100083F82D06064E6C6296206C6103F0D8FBC4
:100320009620AC6103F0D4FB300002F03DF8F3E717
:1003300054700010F8B504000125D026A540032410
:1003400000F06AF836060B4F7562FA2075614000BE
:1003500003F0BEFBFA20B561400003F0B9FB013C9D
:10036000380002F021F8002CEFD1002003F01CFA35
:10037000F8BDC0466870001030B583B001F0C0FF12
:10038000114802F011F80025012480220E230F49A4
:1003900052000F480195009403F052F980220F2378
:1003A0000C4952000C480195009403F049F9802251
:1003B0000D230A4952000A480195009403F040F9C0
:1003C00003F052FAFEE7C0467C70001090700010F7
:1003D000D10200109870001005030010A0700010EA
:1003E0003503001010B54024084A83009A1812689B
:1003F000C0005440C0222240054CA44663441A6009
:10040000044B9C466044416010BDC04604C001409E
:1004100004D00140004001400123D022834040210C
:10042000120693629361094A83009A181268C00009
:100430005140C0220A4006498C4663441A60054B6D
:100440009C460523604443607047C04604C0014099
:1004500004D00140004001408023DB051868000FF4
:100460007047C0460FB400B5084883B001F09CFF48
:10047000049B002B07D005A91800019101F012FE82
:10048000034801F091FF012001F024FEA870001044
:10049000B870001010B50148FFF7E4FFBC70001001
:1004A00070B5EFF3108C72B60D4D2B68002BFCD09D
:1004B000BFF35F8F0724CB08C618C05C01230C4034
:1004C000A3401C000440034207D103433370BFF331
:1004D0005F8F2C608CF3108870BD1000FFF7C2FF97
:1004E0002C0100D0F8B54746CE46884680B5EFF3DC
:1004F000108C72B6214D2C68002CFCD0BFF35F8F9E
:100500009A422CD8D4080727055D06190124174004
:10051000BC402C421FD007210127894609E0D4089E
:10052000055D06194C4639001440A1400C002942D3
:1005300011D001329342F2D201204042BFF35F8FCB
:1005400000220E4B1A608CF3108800280FDBC0BC11
:10055000B946B046F8BD2C4310003470EEE7BFF347
:100560005F8F00232B608CF31088012040424346AC
:10057000002BECD00898FFF775FFC0462C0100D087
:10058000044A1078431CDBB2172B00D910231370D8
:100590007047C046C00F002000B5054B83B0010076
:1005A000009318221F230348FFF79CFF03B000BDF0
:1005B000CC700010441A00200021044B044ABFF301
:1005C0005F8F02C39342FAD17047C046000100D04A
:1005D000800100D0054B064A1360064A1360536041
:1005E0009360D36013615361936170478080808012
:1005F00000E400E004E400E01F2318401E3B8340B9
:10060000002905D0C021044A4900535013607047A7
:10061000802201498B50FAE700E100E0012282408C
:10062000034B1B6813405A1E9341D8B27047C04613
:1006300000E100E001238340014A13607047C04697
:1006400000E200E0064B10309B688000C358054A6A
:1006500000209B1A2F229A424041C0B27047C046E8
:1006600000ED00E0C40F002070B50D00EFF3108620
:1006700072B60F4A1368002BFCD0BFF35F8F0D4B8F
:1006800010309B6884001B590B4A934203D09D4253
:1006900001D001F019F9074B9B681D51BFF35F8F23
:1006A000BFF35F8F0022024B1A6086F3108870BD83
:1006B000240100D000ED00E0CD010010F0B5574658
:1006C0004E46DE464546E0B585B00600029117006D
:1006D000EFF3108B72B6674A1368002BFCD0BFF3A0
:1006E0005F8F0025644B5D579A46002D00DAA4E029
:1006F0006B00624C03935B199B009846A146C14472
:100700004B4652469B79103613705D4BB2009B6886
:10071000019299580B1B2F2B34D95A4B994200D078
:10072000A4E0039B584A9C46584B6544AD00635374
:10073000434602336519E418554B0121043B1B1B4A
:100740001B055B0D13436B80524BEF71AB80FF2396
:10075000AB71029BAB604B460B431900484B019AAF
:100760009B689950BFF35F8FBFF35F8F0022414BAF
:100770001A608BF3108805B0F0BCBB46B246A946A0
:10078000A046F0BD01200A008243D379BB422FD896
:1007900045464E46130040491B1B5B415943090D1A
:1007A0003A4B63533A4B02356519043B5B1B1B05FF
:1007B000354D5B0D2B4373800426B446E04444441E
:1007C000131F1B1B4C46A17102991B05A1604946D2
:1007D0005B0D2B43A380314BE77101431360BDE7F1
:1007E0005800C01880002018C679BE422BD90200DC
:1007F0000623D356002BF3DA101D82462848804684
:1008000004267642B446E14450464E46361A300538
:10081000400D824656461C48957106439680039AC1
:10082000944665441D4AAD00641922604246A37196
:10083000029BA280E771A36090E701F045F80025D4
:1008400053465D5754E7101D8246908840050015B9
:1008500084464046D444664604302018301AE026C8
:100860000005400D360230438046C9E701F02CF800
:1008700057E7C046240100D08C230220C40F00207B
:1008800000ED00E0CD01001000E0FFFF00A1FFFF40
:10089000F40F002001BDFFFFAAAA00000148804715
:1008A00001BD0000F0B5DE4657464E464546E0B570
:1008B0000C0083B0EFF3108972B65F4A1368002B07
:1008C000FCD0BFF35F8F5D4B9A68030010339F002D
:1008D000D5595B4A904695423DD0A5424ED0594EDF
:1008E000AA1B2F2A37D8584A9346126894460122E9
:1008F00061469246824011401F221040524682407B
:10090000924601918022514658468150BFF35F8F35
:10091000EFF305829346002A32D101232A009A433D
:100920009068844208D17CE04B005B189B00F31870
:10093000986884422ED01A00062151560029F3DA15
:1009400084424DD0019B002B1FD0C02251463E4B0C
:10095000520099501960394B9B68DD51BFF35F8F8E
:10096000BFF35F8F0022344B1A6089F3108803B005
:10097000F0BCBB46B246A946A046F0BD1500EAE76A
:100980009342CAD000F0A0FFC7E7802351462E4A09
:10099000D150E0E706215956002922DB4A005018C1
:1009A000800034188046A0689860E079D8710620ED
:1009B00020569871002825DBA488F01A64052415B8
:1009C00044440019E0240005400D2402204398808F
:1009D00052181E4B9200B6181A781970B271B1E70E
:1009E0001300594600290FD1FF31917118499180A8
:1009F00016490A789A71174A9B1B5B415A43120D9C
:100A00000A709FE71448E2E7144A1549D21A083AD7
:100A10005002400D01439980124952080A43DA807E
:100A200090E70621515613000029B7DA5A46002AEA
:100A3000EAD14546DCE7C046240100D000ED00E0E5
:100A4000CD010010C40F002000E100E08C23022043
:100A500001BDFFFFAAAA000001BD0000FE0F00209B
:100A600000F0FFFF00F8FFFF10B58308040003202B
:100A70002040FF24054AC0009446844081409B00EA
:100A800063441A68A2430A431A6010BD00E400E000
:100A900070B501240443EFF30581EFF3108C72B6B7
:100AA000214A1368002BFCD0BFF35F8F1F4B05005A
:100AB0001F4AED1A6D416A43120D1E4D8900AE6842
:100AC00052B27658A6421CD00621595691421CD0EB
:100AD00012215956914222D01E215956914220D0BE
:100AE0002A2159560324914210D0134B19781A70B9
:100AF0008171BFF35F8F00220B4B1A608CF310885B
:100B000070BDAB680D4C5C50EFE700246100091923
:100B100089005B18FF21997109499980E5E7012453
:100B2000F4E70224F2E7C046240100D0C40F0020FD
:100B3000AAAA000000ED00E08C230220CD010010E5
:100B400001BDFFFF00B5074B83B0010000930022F9
:100B500005230548FFF7C6FC002801DB1F23181AF0
:100B600003B000BDE870001090230220024B9C46A9
:100B7000614489000160704740000034F0B5C6460A
:100B8000164D174E2C0000B5B54224D20023012784
:100B9000984623687F42002B11D0FFF7F1FC01003B
:100BA0002800FFF7E3FF434667602372BFF35F8FC0
:100BB0000C34B4420FD223682500002BEDD1FFF78F
:100BC000DFFC01002800FFF7D1FF6760BFF35F8FF4
:100BD0000834B442EFD380BCB846F0BDA810002062
:100BE000B810002010B50400FFF7CAFC0100200077
:100BF000FFF7BCFF01235B426360BFF35F8F10BD53
:100C000010B504000120FFF7C7FC044B9C4660446C
:100C100080002060BFF35F8F10BDC04640000034ED
:100C2000034B9C46614489000160BFF35F8F7047AE
:100C300040000034F0B5DE4657464E464546E0B526
:100C400085B0EFF30582032313409A00110003924D
:100C5000B64A5258904601229A409146B44B1A60C7
:100C60004B46B4484363434608229B5E9A46002B9A
:100C70003DDA43469B881BB2002B00DBA1E04346D4
:100C80009B79002B00D0F3E0434608241C5F002C26
:100C900023DB42465269630094461B19DB00634420
:100CA0009C68DD68631C00D10FE1A248039984466B
:100CB0006144826A0B69A61A9B1A9E4215D34A4662
:100CC000036A1A4211D09B4800F040FB241A8D4160
:100CD000002D02DCC4D1002CC2D040BF05B0F0BC56
:100CE000BB46B246A946A046F0BD0C61EBE74246C2
:100CF00052695B0093465344DB009B445B469E680D
:100D0000DF6800F023FB801BB9410029B1DB002F15
:100D100000DAE5E05B46884A1B69934200D1D8E0DF
:100D200041465A460820085E5288000410435A463D
:100D30005169984704000D0023002B4300D1CFE0F8
:100D4000002D00DBE8E0361BAF4134003D005B4680
:100D50009C60DD600021595E002900DA89E7434686
:100D60005B6922009C462B0048004018C00060448C
:100D70008668C768921BBB41002B00DA79E74346BF
:100D8000664602000094019519810CE07B00DB1996
:100D9000DB00F318009801999C68DD68001BA941ED
:100DA000002904DB1A000023D75E002FEEDA5B4631
:100DB0001F805346138043469B881BB2002B00DAEA
:100DC0005DE743461A69EFF3108172B61368002B92
:100DD000FCD0BFF35F8F43469B8842461BB29A46C6
:100DE00001235B4293801369BFF35F8F00221A6077
:100DF00081F310885346002B00DA40E743465B69D5
:100E00009C46082343449B4653465F004346574451
:100E1000FF0008229A5E67445E46BC68FD68002AAF
:100E200019DB3B000094019567469C4604E01E00D8
:100E30000023F25E002A0BDB0098019953009B18F7
:100E4000DB00FB189C68DD68001BA9410029EEDA75
:100E50006346BC461F005346338000217B5E3A80C8
:100E60009A46002BD0DA43469B79002B00D10BE742
:100E7000002342469371434646460821595E083690
:100E80004B1C00D129E747468C46556902E0060015
:100E90004B1C17D04B005B18DB00E8180A00E95E1A
:100EA00043881BB2002BF2DA01235B42DC1783601C
:100EB000C4606245ECD031803B89944603803A811E
:100EC0004B1CE7D1B8466446E1E66B1C00D0ECE66B
:100ED000F9E65B465C69200023699847002821D128
:100EE0005B4642461B8813811269EFF3108372B68A
:100EF00011680029FCD0BFF35F8F424659465288E3
:100F00000A804246514651801269BFF35F8F00212B
:100F1000116083F31088ACE6064800F017FA241835
:100F20004D4114E76568246806E7C046BC1E0020F2
:100F30003C70054000400540350C0010074810B5D6
:100F40000268EFF3108172B61368002BFCD0BFF378
:100F50005F8F01F09DFC0020002110BD7422002055
:100F600070B52E4C2569002D04D00A212C48FFF7BE
:100F7000FDFD70BD2B4E0321300000F0DDF9E66071
:100F8000FFF7FEFA284B03229C46D02322701B0653
:100F90001B6801216370254B6044A3600F23800010
:100FA00020610220638063694942A1801980023177
:100FB000198647311D83585218315A5275325C399F
:100FC000995218320131995218320131995218321E
:100FD00001319952083518329D5202311832995216
:100FE00018320131995218320131995218320131B7
:100FF00099521832013199521832013199520C4BE1
:101000000C49DC6001303562FFF72EFB0121032023
:10101000FFF7F2FA084B1D60A7E7C0460C1000204E
:10102000742200200040054040000034FFFF100003
:10103000BC1E0020350C0010386005400048704789
:101040000C100020F8B51F0008AB1B780400160038
:10105000002B07D100F082F932003B00121A8B41BD
:10106000002B4CDB2269EFF3108072B61368002B63
:10107000FCD0BFF35F8F62690223E15E94464B00B0
:101080005B18DB006344002901DB1A886280226957
:10109000BFF35F8F0025156080F31088002930DBD7
:1010A000069A9E60DF601A61079A5A615A88013277
:1010B0005204520C161C002A1FD0B0B20A045E80E3
:1010C00010432669EFF3108572B63268002AFCD00F
:1010D000BFF35F8FA2881A80A1802369BFF35F8F5F
:1010E00000221A6085F31088074923788C46013264
:1010F0009A40E36863441A60F8BD0126DDE70020EA
:10110000FAE701204042F7E73C20000070B5C646F0
:10111000010000B50469EFF3108C72B62068002856
:10112000FCD0BFF35F8F02200D5E48696C008046E3
:101130006419E4004444002D01DB208848800869DC
:10114000BFF35F8F002606608CF31088002D30DB24
:10115000E36063880598013320615B0406985B0CAB
:10116000A26060611A1C002B21D090B22B04628017
:1011700018430A69EFF3108672B61368002BFCD08F
:10118000BFF35F8F8B8823808D800B69BFF35F8FE8
:1011900000221A6086F310880B7801329A40CB68DF
:1011A00005498C4663441A6040BCB04670BD0122BC
:1011B000DBE701204042F7E73C20000010B54389FF
:1011C0000A14934233DD53009B184269DB009446B6
:1011D00004696344EFF3108C72B62268002AFCD0D5
:1011E000BFF35F8F5A88090494B2090C8A4208D071
:1011F0000369BFF35F8F00221A608CF31088002010
:1012000010BD8022120214435C80012302698371A5
:10121000BFF35F8F002111608CF3108805490278BD
:101220008C469340C268012062441360E8E70020C6
:10123000E6E7C0463C20000040787047F0B5CE4657
:10124000474680B504000D0083B0EFF30587002FFB
:101250000DD0364A0020536A8B4203D3926A013084
:10126000A24250D303B0C0BCB946B046F0BD304B2B
:101270009846DB689946434648461E7800F066F873
:101280000B00494602000436B600715820008E1A41
:101290002900801A99418F4211DC0ED020BF234AC9
:1012A0000020536AAB42DDD3926A0130A242D9D208
:1012B000E81A421E9041C0B2D4E78642EED900F04F
:1012C0004DF822002B00121A8B41002B20DB00234B
:1012D0000193184B2200009340462B00FFF716FFA6
:1012E000011E15DD114B2E005A6A95421CD89B6ACF
:1012F000A34217D34046FFF761FF0C4A0020536A10
:101300009E42AFD8D0E7581A421E9041C0B2A9E71A
:10131000064A0020536AAB42A4D3926A0120A2423B
:10132000A0D2C5E79542E5D120BFE3E700400540E4
:101330000C1000203D0F001010B5024A0248FFF7C4
:10134000AFF810BD04710010481A00200300416A74
:101350000A00986A596A8A42FAD17047034B596A5F
:101360000A00986A596A9142FAD1704700400540D4
:1013700070B504000D00124A536A1900966A536A48
:101380008B42FAD13000190024184D41AB4211D8DC
:101390000ED02B000A494A6A9A42FCD307D1084A68
:1013A00002E0516A994202D1916AA142F9D370BD1B
:1013B000A642EED9012301246442E5175B42E9E726
:1013C00000400540F8B5040006200D0000F076F955
:1013D000002842D0364B3749E21853425A41802305
:1013E000DB039C469205344B62441A60334B1A600F
:1013F00010000B689843FBD12D4B8021E3185A4213
:1014000053412F4A5B0049009952062000F056F9DB
:101410002900C00000F036FB0130C3091ED140276F
:1014200001226262A362266BF30722D4E36A254B92
:101430000620E51800232B60266300F03FF93900F1
:10144000800000F01FFB7022E36A5A407E231340A5
:101450002B601D4B23630323A364F8BD1B4A9342F7
:101460001ED900231A4A1B4F6262A362266BF30740
:10147000DCD5194B144AE3181A60656AA26A062083
:10148000AD01AD1800F01AF9144900F0FBFAAD02F5
:101490000100280000F0F6FA0021FFF769FFC5E718
:1014A0004006800E9F011A003F180300B9E7C046AE
:1014B0000080FCBF08C0004000E0004000F0004099
:1014C000802200202C10000001030000FEFF00001D
:1014D000FFFF0000C0FF3F00303000004E0E000054
:1014E000F8B5DE464E4657464546E0B58B46050004
:1014F0000A991800160000F0C5FA0A9B6C001F023A
:10150000324B64199C46A4006444636881469F4240
:1015100000D967602B1FDBB29846012B30D9C0235E
:1015200080229B01E31812011A60294BAD00595922
:101530009A4600291BD1226876017240E02680235A
:10154000164042465B01E3181E60012A30D9802311
:1015500080229B01E31812011A6053464A466760D5
:101560005A51F0BCBB46B246A946A046F8BD5869E0
:1015700000F088FA431C5800C0180338FDD2DAE79F
:101580005B46012BCBD1C02303229B01E3181A60D9
:10159000023AA3681A42FCD0E02322687601564042
:1015A0001E4080230A4A5B019246E3181E60AD008C
:1015B0005A462168514003220A401A6001225B46C4
:1015C0009A40A3681A42FCD0C1E7C04600800040A0
:1015D0004C1A0020F0B546464F46D646C0B51F000F
:1015E000344B44009C462418A40064446368884635
:1015F0001600FF2B02D880235B006360031FDBB261
:101600009A46012B30D9C02380229B01E318120196
:101610001A60294B85005959994600291BD1226827
:1016200076017240E0268023164052465B01E318A3
:101630001E60012A30D9802380229B01E318120109
:101640001A6080235B0063604B465F51E0BCBA4682
:10165000B146A846F0BD586900F014FA431C580082
:10166000C0180338FDD2DAE74346012BCBD1C023A3
:1016700003229B01E3181A60023AA3681A42FCD0C5
:10168000E0232268760156401E4080230A4A5B010F
:101690009146E3181E6085004246216851400322AE
:1016A0000A401A60012342469340A2681342FCD0CC
:1016B000C1E7C046008000404C1A0020014B80006A
:1016C000C05870474C1A0020F8B5040020481D008F
:1016D00017000E0000F0D6F90100380000F0D2F932
:1016E000069B29041B0319432368002B1EDB194B9F
:1016F000194DE21853425A4180235B019C46120364
:10170000164B62441A60164B1A6017002B689F43F1
:10171000FBD1144B2660E2182123A06013602368DC
:10172000002BFCDA0823E1601360F8BD3F23226838
:101730001340B342DBD1A3681B051B0D8342D6D1F6
:10174000EE22E368D20213408B42D0D1EDE7C046CF
:10175000001BB7000040FDBF08C0004000E0004093
:1017600000F000400430000010B5140080221B4B34
:10177000D2051A6000281AD00123194A1843194BC0
:10178000DA61194A42401A62596298628022134B08
:10179000D2051A601549164A1160E022D2041A6077
:1017A000002C07D18022134B12061A6010BD0D4B7E
:1017B000D861EBE763011B1B9A0080231219120109
:1017C0005B049A4200D30C4A0C4B1A60054B5A60DA
:1017D0008022084BD2051A60E8E7C04600B00540F9
:1017E000D3C007B0008005402D3FF84FFCFF01003B
:1017F0000820014000A00540FFFFFF00AC1E0020B4
:101800008023024A9B000B43D3627047008005404F
:10181000142310B50100188804331B88984710BDA5
:10182000162310B50100188802331B88984710BD95
:10183000F8B54746CE4680B50F1E19D014239946F9
:10184000043304000025012698464B461888434679
:1018500021681B88984701C4431E984101354042C6
:101860000640AF42F1D13000C0BCB946B046F8BD29
:101870000126F8E7142370B50400188804331B8888
:101880000D000549984703000020002C01DB0130C2
:10189000A04029009847C04655420000AA23064AA6
:1018A0001B0113608D235B00D3600449044B196056
:1018B0005368002BFCDA70470040024000B0FA0089
:1018C000006002407047C04610B50148FEF7CAFDEF
:1018D0002871001070B5074D074EB54209D200249B
:1018E000013E761BB60808CD984723000134B34269
:1018F000F9D170BDF86F001034700010054B064A26
:1019000006491A60064A074B1A6010000B68984394
:10191000FBD1704700E00040BFCDFBFE08C0004097
:10192000FE7F3C0000F00040044BDB6C002B03D139
:101930008022034BD2021A607047C046000011504B
:101940004C201150044A054B1A60054A1368DB010C
:101950008033FBD17047C046FFFFFF0100F000401D
:1019600008C000404022034B9A675A671A67DA663C
:101970007047C04600F0014010B5FEF71DFE10BDD7
:1019800070B5044D044C2800C022A16800F07CFB17
:10199000A56070BD0000002000ED00E0002310B540
:1019A000294C82B0A367FFF779FF0122274B1A6009
:1019B000636C012BFCD10322254B1A60224A936BE6
:1019C000012BFCD1013300930121224A2248043328
:1019D000FFF77AFE052301210093204A2048FFF7F4
:1019E00073FE0022022104201E4BFFF7F3FD0022AC
:1019F000012105201C4BFFF7EDFD002200210720EF
:101A00001A4BFFF7E7FD002200210820174BFFF7D4
:101A1000E1FD8023DB000093002200210920134B0D
:101A2000FFF75EFD0022104B00210620FFF7D2FDDC
:101A30000420FFF743FE0E4900F024F801000020C7
:101A4000FFF7DEFE02B010BD008000403CB0004059
:101A500030B00040002F685900800240008C86475B
:101A600000C00240001BB70040597307006CDC0245
:101A700040420F0001480421014B1847301000205C
:101A800031180010114A936F9B0813D210665166EB
:101A9000002905D0FFE7FFE7FFE7516F106F7047A0
:101AA00004B5002801D00020C04305F065FA0021EC
:101AB00004BDC046F0B5146E556E576F166FFFF734
:101AC000E5FF1466556657671667F0BD000000D045
:101AD00094464A4A926F9208624601D228E0C04674
:101AE000F0B5464E346E756E776F366F00F020F8A5
:101AF0009446424A14665566576716676246F0BDBB
:101B000094463E4A926F9208624601D254E0C04623
:101B1000F0B53A4E346E756E776F366F00F04CF854
:101B20009446364A14665566576716676246F0BD96
:101B3000002B24DB11D000293EDA00B5C943404216
:101B400000D1013100F038F8C943404200D10131E1
:101B5000DB43524200D1013300BD002AEBD1002803
:101B600001D1002905D00020C90FC90701D1C04308
:101B7000410800B505F0F8F90022002300BD00B5CA
:101B800000290ADBDB43524200D1013300F014F894
:101B9000C943404200D1013100BDC943404200D198
:101BA0000131DB43524200D1013300F005F8DB4341
:101BB000524200D1013300BD002923D1002B18D19E
:101BC000002A0CD0BC460D4F38667A6600210023EF
:101BD000FFE7FFE7FFE77A6F386F67467047002837
:101BE00001D00748010000B505F0BEF9002200232E
:101BF00000BD02000B00002000217047000000D053
:101C0000FFFFFFFF002B00D0BFE0130C28D1002AFC
:101C1000E7D080B4114F39667A66FFE7FFE730B44A
:101C2000040C7B6F396F1B0423433B667A66FFE726
:101C3000FFE7FFE7C04684B27B6F3D6F1B04234381
:101C40003B667A66FFE7FFE7C04600232C042D0CB5
:101C50007A6F386F00196941B0BC7047000000D03E
:101C6000F0B594460025140E01D112020835140F68
:101C700001D112010435940F01D192000235D40F25
:101C800001D152000135D40B0134254F7C66254C1F
:101C90003C660E0C93B2FFE7FFE7FFE73C6F66433D
:101CA000360C7703BE467343DF0B5B04C01AB941A1
:101CB000130C7343DB18C91ACE086643360CB644BE
:101CC00093B273431F0F1B01C01AB941130C734326
:101CD0001F0B1B05C01AB941860D8F023E43664398
:101CE000360C092D24DB520A7243801A7703460A08
:101CF0006643360C16235B1BDE40DF40BF1964468B
:101D00006643821B7046043506330100D940A84063
:101D1000C01900D30131A24206D20023F0BD000059
:101D2000000000D0FFFFFFFF121B0130F3D3F1E7EB
:101D300009277F1BFE406446A2B27243801A00D27C
:101D40000139220C7243130C1204821A99410B00C0
:101D50007046043513370100F940A840801900D3BC
:101D60000131002B02D1A2420AD2F0BD013000D3D2
:101D70000131121BFAD2013BF8D1A24200D2F0BDD0
:101D8000013000D30131121BF7E7F0B51C0C00D075
:101D900080E00CB400251C0A04D11B02160E33434C
:101DA000120208351C0B04D11B01160F334312011C
:101DB00004359C0B04D19B00960F334392000235EF
:101DC000DC0B02D192185B4101351C00971864416D
:101DD0000134464F7C66464C3C660E0CFFE7FFE73D
:101DE000FFE7C0463C6F6643360C7703BE4697B2AA
:101DF0007743C01B00D20139C01B00D201399FB20A
:101E00007743C91BC91B170C77437E04FF0B801B4C
:101E1000B941CE086643360C0C2D33DBB644120BA9
:101E20001F053A431B0B97B27743C01B00D2013901
:101E30009FB27743C91B170C77433E043F0C801BAE
:101E4000B941860D8F023E43664329277F1BFE4022
:101E50000C3D7746AF40BF1930BCA2B2ABB2724363
:101E60007343801A9941220C7243130C1204801A96
:101E7000994102000B000137001BA941F9D2781EDD
:101E80000021F0BD0C277F1BFE4077467F0BAF4043
:101E9000FF19E0E700245D1C07D0144F7D6639660A
:101EA000FFE7FFE7FFE7FFE73C6F95B29EB26543B0
:101EB0006643401BB141150C1E0C65436643360456
:101EC0002F0C3E432D04401BB141994204D2020025
:101ED0000B0020000021F0BD01D19042F7D3801A01
:101EE000994101349942F2D3F6E70000000000D096
:101EF000FFFFFFFF10B50148FEF7B4FA3471001080
:101F0000132370B51D78012D15D039DD1E48FFF75C
:101F100087FC06001D48FFF783FC1D4C8022310022
:101F2000200000F0B1F8022D27D01A48FFF770FC0E
:101F3000194B186070BD194B154C23606360A3608A
:101F4000E36023616361A361E36123626362A3626F
:101F5000E36223636363A363E36323646364A3644F
:101F6000E36423656365A365E36523666366A3662F
:101F7000E36623676367A367E367094BA364D4E75A
:101F8000034C074BA364D0E75344000053460000C2
:101F9000401200204C33000070210020F51E00107C
:101FA000A51F001007B5604601880A0A0230DF2A23
:101FB000FAD1C9B2820804D30288408800041043D1
:101FC00000E00068014A5050039007BD4012002015
:101FD00051434343C9188C46110C83B24B4310B490
:101FE000040C614392B280B2504362431C041B0C48
:101FF000001910BC59411304120CC018514161441E
:102000007047000010B50148FEF72CFA8C700010E4
:10201000132310B510481C78FFF702FC0100012CB7
:102020000AD003DD80220D4800F02EF80C48FFF79F
:10203000EFFB0C4B186010BD084C5422200000F040
:1020400023F82300084A80332168002900D1226048
:102050000434A342F8D1E9E753460000742100207C
:102060004C3300007021002005200010014804219D
:10207000014B18474010002031180010014B1B681D
:102080001847000040100020014B5B681847000013
:102090004010002010B5002800D110BD00F038F924
:1020A000FBE7C04610B5094A0300146884B0002C51
:1020B00008D0012200910648524203A9A0470120FE
:1020C00004B010BD00F070F90020F9E7A81E002050
:1020D0009520001000BEFDE710B5FFF7FBFFC046DE
:1020E00070B5FFF7F7FB074D074EB54209D2002444
:1020F000013E761BB60808CD984723000134B34251
:10210000F9D170BD3470001040700010030010B59C
:10211000080011001B68984710BDC046F0B5464640
:102120004F46D646C0B5437D80460E001700002BB3
:1021300046D0002A3FDD4B1E9946244B0125002442
:1021400000209A460DE04B461B5D0D3B5A42534121
:10215000325DDBB20A2A0BD02B00013401359F42DD
:102160001ADD002CEFD14346325D1B7D0A2AF3D1E4
:10217000002BF1D1A04204DA4346211A1B68301823
:102180009847434650461B6802219847013428006F
:102190002B0001359F42E4DC874204DD4346391AB7
:1021A0001B6830189847F619013E33780D3B5A42A8
:1021B000534142461375E0BCBA46B146A846F0BD4D
:1021C0000368110030009847F5E7C046E071001041
:1021D000F0B5DE4657464E464546E0B585B0170099
:1021E0001C0006000D00FFF7B9F80023314A121851
:1021F0004B41002B59DB304908008A4604F0D4FEDD
:1022000001906B1C03D1300004F05EFE0500002C31
:1022100026D12A4B98462A4B1C68002C15D0002F3B
:1022200021D1284F02E02469002C0ED02368002B16
:10223000F9D03B68002B01D0A342F4D120002A0042
:102240003100C0472469002CF0D1019B002B28D11C
:10225000280005B0F0BCBB46B246A946A046F0BD7A
:10226000194B9846D7E7174B994602ABDF1D0A2357
:102270009B4602E02469002CE7D02368002BF9D0AC
:102280004B461B68002B01D0A342F3D12A0031003A
:102290002000C0475B460122390020003B70C04748
:1022A000E8E7504604F058FED2E70122074B5242BD
:1022B000A1E7C04640420F00B01000200D210010E1
:1022C0009C1A0020A41A00201D210010FFFFFF7F90
:1022D0000A4A1368002B05D10CE01A001B69103262
:1022E000002B07D09842F8D1002902D1036913606E
:1022F000016170470029FCD01060FAE79C1A0020A9
:1023000010B500F039F902F019FD012010BDC046EA
:10231000F0B5CE46474680B583B06B460600DD1D5E
:102320002870FFF71BF800231A4A12184B41002BA4
:102330002BDB19490800884604F036FE174B81460E
:102340001C68002C14D0164F02E02469002C0FD01A
:102350002368002BF9D03B68002B01D0A342F4D1B5
:10236000200001222900FFF7D9FE2469002CEFD1BB
:102370004B46002B05D1300003B0C0BCB946B04677
:10238000F0BD404604F0E8FDF5E70122054B52425E
:10239000CFE7C04640420F00B01000209C1A00203A
:1023A000A41A0020FFFFFF7F70B5040004F08CFD2D
:1023B00001230100050001222000FFF709FF084B5F
:1023C0001C68002C06D06368002B05D09847246950
:1023D000002CF8D1280070BD2469002CF3D1F9E756
:1023E0009C1A0020F0B50D1E15DD0E4B0D271A6846
:1023F0000D4B4519D31859424B410C495B005E5EA9
:1024000020210478A64207D093691942FCD10130FB
:102410001460A842F5D1F0BD93691942FCD1176050
:10242000F2E7C046842200200080FCBF802200200A
:1024300030B504000D1E24DD002010211A4B013C94
:102440001A689369194217D1013093691942FCD176
:10245000136823548542F4D1144B1B68002B0AD017
:1024600050239363516B183B0B4011498C466244D7
:102470001360002814D030BD0C4B1B68002BEFD12B
:10248000F7E70A4B1B68002B0AD05022064B1B684B
:102490009A63596B183A0A4005498C4663441A609E
:1024A00003204042E7E7C04684220020341A00207F
:1024B00034100000064B10B51B68002B06D000211D
:1024C000044A12689163044A1068984710BDC046D8
:1024D000341A0020842200203C1A00200822034BDA
:1024E00019688B691A42FCD17047C04684220020CB
:1024F00070B51B4E1B4B32680500D3185842434140
:1025000014331C00002D04D0174B1A68002A11D078
:1025100070BD154E3368002BFAD000212000956362
:10252000FEF76AF820001149FEF7BCF9104B356040
:102530001D60EDE71D600E4B200019600B49FEF792
:1025400093F801212000FEF757F8502233689A6370
:10255000596B183A0A4007498C4663441A60D7E71A
:10256000842200200080FCBF341A0020B524001013
:102570003C1A0020341000000D4B10B51B780D4B99
:102580000D4C1B780D4B02211B780D4B0020236056
:10259000FDF728FF02210120FDF724FFE12120683B
:1025A0004902FEF70FFF01210648FFF791FE10BD1B
:1025B0007C75001080750010842200208475001046
:1025C0000040034050100020000000000000000008
:1025D0000B4A13681868203080F30988022080F3C2
:1025E0001488BFF36F8F3FBCAE4608BC04BC62B614
:1025F0001847C046C046C046C046C046C046C04652
:10260000D01E0020000000000000000000000000BC
:10261000EFF30980164B1A6820381060F0C044466A
:102620004D4656465F46F0C00D221207146E556E99
:10263000566F176F3038F0C008B572B601F0A8FABF
:1026400062B60CBC116808681030F0C8A046A946F4
:10265000B246BB4680F309880D2212073038F0C815
:102660001466556656671767F0C81847C046C046D7
:10267000D01E002010B5FDF70DFFC046D02300B5D9
:102680001B061A6D83B0D20704D501219A6D1A6D0D
:102690001142FBD1D023FF221B061A650023114AE9
:1026A00001931168EFF3108C72B60B68002BFCD00D
:1026B000BFF35F8F00230C48126801680360BFF30B
:1026C0005F8F13608CF31088084B01AA186800F024
:1026D000CDFA019B002B03D08022054B52051A60D6
:1026E00003B000BDCC1E0020A0220220082302203F
:1026F00004ED00E07047C04610B58024031F640459
:102700001C60043B19600349043B1960143B4038CA
:102710001A6010BD752600108022044B52051A6005
:10272000BFF34F8FBFF36F8F7047C04604ED00E0DB
:1027300072B6044A136801331360BFF34F8FBFF3BF
:102740006F8F70479C220220034A1368013B13607D
:10275000002B00D162B670479C220220EFF310805C
:1027600072B6704780F310887047C04610B5FFF707
:10277000F5FF040001F0FAF9002803D08022034B92
:1027800052051A602000FFF7EDFF10BD04ED00E0D8
:10279000002310B5084A094C052023601360FEF79A
:1027A0008DFFFA218900FFF76DF9054B013818609C
:1027B0000723236010BDC04618E000E010E000E0F1
:1027C00014E000E0FF22204B1204196810B50A4300
:1027D0001A60FF22196812060A431A601B490E206C
:1027E00001F09CFE1A490F2001F098FE19490B20B8
:1027F00001F094FEFFF7CCFF0022174B1A60D023A4
:102800001B06164A19681170FF221A651A6DD20745
:1028100004D501219A6D1A6D1142FBD1D0231B06FC
:102820001C68FF210F342000FEF71EF920000C4920
:10283000FDF71AFF01212000FDF7DEFEFFF7C8FEBD
:1028400001F0A6F9FDF726FE20ED00E011260010AC
:102850006D270010F52600109C2202206810002031
:102860007D260010D02310B51B061868074B1B7877
:10287000834200D010BDEFF30583002B02D05B0034
:10288000C018F7E701F0E8FBF4E7C0466810002045
:102890000A002C4930B58C46036883B063449C1011
:1028A0005C2B00D9183C0121274BA1401C78D02378
:1028B0001B061B689C421FD040BF244D03682C6838
:1028C000A34234D02368002BFCD0BFF35F8F204B92
:1028D0001C68214319602B68BFF35F8F00211960CA
:1028E0000368D020002100064165BFF35F8F1960A7
:1028F00082F3108803B030BD40BF0368BFF35F8F21
:102900000020186082F31088EFF30583DBB2002B00
:1029100012D0104B019001AA186800F0A7F9019B92
:10292000002BE7D080220C4B52051A60E2E70848E2
:10293000046821430160D4E7064B186800F04EF9A3
:10294000D8E7C04600FFFF2F68100020CC1E0020F3
:10295000A02202200823022004ED00E0F0B5CE46BC
:10296000474680B51D00364B14001A78D0231B064D
:102970001B688046894683B09A420FD00368BFF334
:102980005F8F00221A6081F3108820002900FEF773
:1029900055FC03B0C0BCB946B046F0BDFEF7DEFC46
:1029A00022002B000127121A8B41264E7F42B618B7
:1029B0005F41002F20DC1BD043461B68BFF35F8FB5
:1029C00000221A6089F310881F4B5A6A954205D875
:1029D0009B6A0120A342DCD29542DAD180221B4BB4
:1029E00052051A60BFF34F8FBFF36F8F0020D0E7FF
:1029F000FA239B009E42DFD3FA22002330003900E5
:102A00009200FFF765F8031ED6D042461268BFF366
:102A10005F8F0021116089F310880D4A0D491068FD
:102A200042468C461268624496105C2A00D9183ED1
:102A300001210093B1400023012200F073F8C3E7A5
:102A40006810002018FCFFFF0040054004ED00E086
:102A50000823022000FFFF2F10B5FDF791FD054B65
:102A60009C46054B60448000186000F04FF8034B13
:102A7000186010BD40000034CC1E00200823022046
:102A8000F8B5DE4657464E464546E0B505000F0010
:102A9000060000F04BFF29682C6939430C36296089
:102AA000A6422AD0002398468023DB049B4680233D
:102AB0005B049A4680239B0499460EE019420AD093
:102AC00057463A4202D042461A4390464B46194373
:102AD00001F02AFA2968A6420DD020005F4602685C
:102AE000646813021B0A3A42E8D00F001F40BB4241
:102AF000E6D0A642F1D143469943296000F01EFF7B
:102B0000F0BCBB46B246A946A046F8BD10B51C2095
:102B100001F028FD041E03D0002308C000F0B0F827
:102B2000200010BDF0B5C646060000B50D00904669
:102B30001F0000F0FBFE3468002F0AD125420CD0A4
:102B40004346002B0CD02300AB43336000F0F6FE6D
:102B500008E02B0023409D42F2D0069B002B05D1BC
:102B600000F0ECFE200080BCB846F0BD4346002BD0
:102B700016D180210023C904002F00D11900069A24
:102B80002943301D01F092F800F0D8FE00281CD037
:102B900001F09AFA0400830107D52402240AE1E730
:102BA000A0218023C9045B04E6E7FFF7C1FD346878
:102BB000002F0DD12C4205D04346002B02D023001C
:102BC000AB433360FFF7C0FDE7E7FFF7A5FDDFE7A5
:102BD00023002B409D42F5D1EEE7C046F8B5DE4616
:102BE00057464E464546E0B506000D00070000F08A
:102BF0009DFE336834691D430C373560A7422AD0E7
:102C0000002399468023DB04984680235B049B467F
:102C100080239B049A460EE01D420AD059460A4280
:102C200002D04A461A4391465146294301F07CF9A5
:102C30003568A7420DD0200041460268646813023F
:102C40001B0A0A42E8D0290019409942E6D0A7425F
:102C5000F1D14B469D43356000F070FE2800F0BC7A
:102C6000BB46B246A946A046F8BDC04610B5130003
:102C70000A000100014801F03DFC10BD812A00104E
:102C80000300083301224360C36003610023524202
:102C9000826003607047C046002303617047C046EE
:102CA00043689A684B608A609A68516099600368CB
:102CB0000861013303607047030030B50C680833C6
:102CC000621C0DD01A005B681D68A542FAD94B60E2
:102CD000996003688A60013351600861036030BD08
:102CE00002695368F3E7C0460369416882688A60F5
:102CF00051605968814205D0002202611A68501E55
:102D0000186070475A60F7E7F0B5DE464E46574602
:102D10004546E0B585B00600FFF70AFD4523F45CA3
:102D200064B2002C21DD213B994621339B46B144FE
:102D300009E0AB6BEA6B0396934245D3013CE3B2E7
:102D400064B2002B11D0B56C002DF2D1736A002B48
:102D50000BD0484601F07CF80028EFD001F076F95E
:102D6000013CE3B264B2002BEDD14523FF22F254C3
:102D7000FFF7EAFCFFF7DCFC4423F45C64B2002CB0
:102D800016DD3500103504E0013CE2B264B2002AE1
:102D90000ED03369002B0BD0280001F059F8002821
:102DA000F2D0013C01F052F9E2B264B2002AF0D153
:102DB0004423FF22F254FFF7C7FC05B0F0BCBB462A
:102DC000B246A946A046F0BD5B462A6CEF5CAB6BF1
:102DD0007FB29846002A13D12B680193002B30D084
:102DE00000239A4643460133AB637B1C17D16B6AC1
:102DF000002B1DD15346002BA0D001F027F9AFE7DF
:102E0000686803A9FFF740F92A6C6B689446AA68C2
:102E100063446B609342E3D32B686B60E0E700F0A0
:102E20009FFEB842E6D95B4601377FB2EF54E1E737
:102E30002800243001F00CF80028DBD001F006F95E
:102E40008EE7A86801F00EF9019B8246AB60C9E7E6
:102E5000F0B5C64600B5846C82B0A36BE26B00256A
:102E60000190934204D3280002B080BCB846F0BD64
:102E70004523226CE65CA76B76B2002A1CD0606802
:102E800001A9FFF701F9226C63689446A2686344C4
:102E90006360934214D3236863600137A763731C94
:102EA00013D1636A002BDED02000243000F0D0FF65
:102EB0000028D8D00125D6E723689846002B0DD0EE
:102EC00001370025A763731CEBD000F049FE864252
:102ED000C9D24523013676B2E654C4E7A06801F0B2
:102EE000C1F843460500A360D7E7C046F8B5050022
:102EF0000E001700002846D00B0C020C002B34D11A
:102F0000331C002A35D130006843030055333AD8CA
:102F1000543001F027FB041E35D00300002E00D0F2
:102F200054332360E5632664FFF702FC216CE36BF6
:102F300022684B43D0185B1AD3186260E360002507
:102F4000FF234422A0602000A563A3540132A354B0
:102F50001030FFF795FE20002430FFF791FEFFF7B9
:102F6000F3FB5023E754A5640EE0002A0BD11A1C92
:102F7000031CB0B2A9B2414398B293B24343090CC7
:102F80005B181B0CBFD000242000F8BDF8B54E46DE
:102F9000DE46574645460400E0B591461D000F0049
:102FA000FFF7DCFBA36BE26B060093423AD3022DE2
:102FB0000AD000243000FFF7D5FB2000F0BCBB4650
:102FC000B246A946A046F8BD4523E35C226C5BB23D
:102FD0009846A36B9B46A36B9A46002A2DD03900D6
:102FE000E068FFF751F8E168236C5A42CB1A216878
:102FF000E3608B4203D2A3689C466244E26053467E
:10300000022D54D00133A363434601331ED000F098
:10301000A7FD80452DD24346452201335BB2A35420
:103020000124C7E74523E35C226C5BB29846A36B9F
:103030009B46A36B9A46002A1DD12768002F3AD0E1
:1030400053460133A36343460133E0D1A36C002B05
:1030500022D0022D02D15B46002B0AD12000FFF7BF
:10306000F7FE002805D04B46002B02D001234A462C
:10307000136001249EE7002DB1D139006068FFF78D
:1030800003F8226C63689446A268634463609342C9
:10309000D6D323686360D3E7636A002BE9D02000AE
:1030A000243000F0D5FE0028DDD1012482E7002B7A
:1030B000C8D10133A7E7A06800F0D4FF5346A7604A
:1030C0000133BFE7F0B54746CE46040080B585B072
:1030D00088460192FFF72CFBA76B002F5ED1019B66
:1030E000002B3BD002A800F06BFF0023442699463A
:1030F0004525FFF729FB00F019FCFFF719FBA35D3D
:103100005BB2013301D14B46A355635D5BB2013322
:1031100001D14B466355FFF717FB01A902A800F048
:103120005BFF002822D1FFF703FBA36B002B2AD102
:10313000FFF70AFB20000199243000F067FD200012
:10314000FFF7E2FD00F0FAFB002824D0FFF7F0FAC9
:10315000A76B002F22D1019B002BCAD1FFF7F4FAF5
:10316000002005B0C0BCB946B046F0BD2000FFF756
:10317000CBFD00F0E3FBFFF7DBFAA36B002BEDD0F8
:10318000FFF7E2FAE2E7FFF7DFFA2000FFF7BCFD06
:1031900000F0D4FBDAE7FFF7BFFAD7E7226C002A8A
:1031A00008D0E3689918A368E16099420BD24046C1
:1031B000FEF76AFF2369013FA763002B06D1FFF7E3
:1031C000C3FA0120CDE72168E160F0E7200010306C
:1031D00000F03EFE0028F2D0FFF79EFAEFE7C0466F
:1031E00070B500290ED000260023374DDA00AC1848
:1031F0006468844259D0002E05D00133082BF5D1E4
:103200003160706070BDAC58002C4BD05C1C072B3B
:10321000F8D0E200AE187668B04246D0AE58002E24
:1032200047D09C1C062BEDD0E200AE187668B04269
:103230003BD0AE58002E3CD0DC1C052BE2D0E20087
:10324000AE187668864230D0AE58002E31D01C1DA4
:10325000042BD7D0E200AE187668B04225D0AE5825
:10326000002E26D05C1D032BCCD0E200AE18766871
:10327000B0421AD0AE58002E1BD09A1D022BC1D0DE
:10328000D4002E197668B0420ED02C59002C13D0E1
:10329000012BB7D0EB6B984212D0AB6B002BB1D1A6
:1032A00007233822AE18A8E7D200AE18316070604C
:1032B000A8E72300AE18A0E71300D200AE189CE7E1
:1032C0003822AE18F2E7C0464013002070B5040063
:1032D00016000D00FFF72CFA4422A35C5BB2013309
:1032E00001D10023A3544522A35C5BB2013301D179
:1032F0000023A354FFF728FAA36B002B03D0200070
:10330000FFF702FD70BD200032002900243000F0DC
:1033100031FDF4E7F8B5CE46474680B50400FFF727
:1033200007FA3A4A136801331360394B99461B6810
:10333000002B38D0374D2B68002B2AD0E16A364E4F
:10334000364B1A6801321A60354B62641A688A4239
:1033500000D219608B005B189B00F01842689168DE
:10336000A260E1609768211D79609160F258606108
:103370000132F250FFF7E8F92B68002B05D04B46DD
:103380001B68DA6AE36A9A4216D3C0BCB946B046F3
:10339000F8BD4B461B68E16ADB6A8B4201D84B469D
:1033A0001C601D4ECCE74B461C601368012B06D0F9
:1033B000E16A194E174DC3E7FFF7AEF9E5E7A02321
:1033C000154E9B0098463500B04428001435FFF791
:1033D00057FC4545F9D1134B98461800FFF750FCB0
:1033E000114D2800FFF74CFC1048FFF749FC10482E
:1033F000FFF746FC0F48FFF743FC42460E4BE16ADD
:103400001A600E4B1D60034D9AE7C046A4220220AD
:10341000D01E002044230220E81E0020B0220220FB
:10342000B4220220E0220220F422022030230220D3
:103430006423022050230220D81E0020E01E00201A
:10344000F0B5C646124B00B59846124D124F134EBA
:1034500014E0FFF76DF9FB68DC68201DFFF744FC02
:103460003368013B33602B68013B2B60FFF76CF93D
:10347000206B01F001F9200001F0FEF82B68002B11
:10348000E7D143461B68012BF8D9FFF745F9F5E76B
:10349000E81E0020A822022064230220A422022089
:1034A000F0B55746DE464E4645465C4BE0B51F68D4
:1034B00083B001371F60002F64D0594B9B465B4699
:1034C0001B689F4276D3574B9C461B681B68002B9A
:1034D00000D196E000230093534B544D9A460023AD
:1034E0009846534B0197994639E041465961116816
:1034F000013911609A6A002A0FD0D969186A566892
:103500008860186A4160190018318E4200D176E057
:10351000414699621168013911604A46D96A1268B8
:10352000914201D94A4611608A0052189200AE18A1
:10353000706887689860DF6087687C6084605E611F
:10354000AB580133AB5053461B68DB6A994201D933
:103550000123009363461B681B68002B56D063460B
:103560001B680199DB68DB685A68914253D35A693A
:103570009868D9681C1D816048605068A042B4D129
:103580005160B2E7274B2B4A196810681860116028
:1035900029490A6801320A601A681268002A27D18C
:1035A0001F4B9B4601235A465B4213605B461B68D8
:1035B0009F4288D2002300931B4B1C4D9A465346D2
:1035C0001B68DA6A93009B189B00EB58012B01D90A
:1035D00001230093194B1B68002B01D0012300939A
:1035E000009803B0F0BCBB46B246A946A046F0BD69
:1035F0001B680B4ADB6893461B6813605FE75060EB
:1036000086E700230093084B084D9A4601235A464B
:103610005B421360D3E75B461A60D0E77823022051
:103620001C230220D81E0020D01E0020E81E0020EF
:10363000B4220220E01E0020202302208423022046
:10364000F8B5CE464746960080B5804630000D005E
:10365000994600F087FF071E00D19AE0702000F025
:1036600081FF041E00D197E070220021FEF706FDC5
:103670003200A52138002763FEF700FD236B043ECE
:103680009C46072366449E43002D5FD034232A784E
:10369000E2542B78002B56D035236A78E2546B78AD
:1036A000002B50D03623AA78E254AB78002B4AD0B6
:1036B0003723EA78E254EB78002B44D038232A7978
:1036C000E2542B79002B3ED039236A79E2546B798E
:1036D000002B38D03A23AA79E254AB79002B32D0B0
:1036E0003B23EA79E254EB79002B2CD03C232A7A55
:1036F000E2542B7A002B26D03D236A7AE2546B7A6F
:10370000002B20D03E23AA7AE254AB7A002B1AD0A9
:103710003F23EA7AE254EB7A002B14D040232A7B31
:10372000E2542B7B002B0ED041236A7BE2546B7B4F
:10373000002B08D04223AA7BE254AB7B002B02D0A3
:103740004323EA7BE25443230022E254089D1F2DC9
:1037500028D8E562E564201DFFF79EFA20001830A6
:10376000FFF79AFA20235D1B4A4641463000246148
:10377000A5616462FEF7C0FF099B2060002B00D0AA
:103780001C602000FFF7C6FD0120C0BCB946B04652
:10379000F8BD01204042F8E7380000F06DFF01203D
:1037A0004042F2E71F25D4E7F8B50400FEF7C0FF5A
:1037B000254E002C42D0271D3800FFF795FAA36A4A
:1037C000002B03D020001830FFF78EFA1F4A204D3F
:1037D0001368013313603368A34221D02B681D4A5C
:1037E0001368013B13601C4B1A681268002A13D03F
:1037F0001B68DB681A68194B1A60FEF7A5FF206B7F
:1038000000F03AFF200000F037FF2B68002B02D0B9
:103810003368A34214D0F8BD104B013A1A60ECE7AC
:103820002B68002BDBD039000D48FFF739FA0D4A21
:10383000136801331360FEF787FFE6E73468BAE7E1
:10384000FEF76AFFE7E7C046D01E0020B022022044
:1038500044230220A4220220D81E00201C23022080
:1038600064230220A8220220802070B5C00000F04E
:1038700079FE051E44D0702000F074FE041E42D074
:1038800070220021FEF7FAFB8022A521D200280039
:103890002563FEF7F3FBFF239B009C460723256B64
:1038A000002665449D431A4B201D63633823E6546C
:1038B0000B33E654E662E664FFF7EEF920001830B9
:1038C000FFF7EAF9202300221249A36128002461AE
:1038D0006462FEF711FF104B206020001C60FFF7B0
:1038E00019FD00F0C1FD01280AD172B601220B4B6F
:1038F00052421A600A4B18600A4B1E60FEF762FFC4
:10390000094B1B6870BD280000F0B6FEF8E7C04602
:1039100049444C4541340010102302201C2302204E
:1039200044230220782302206C100020024A1368EE
:10393000013313607047C046AC220220F0B5DE466A
:1039400057464E464546E0B583B0FEF7F1FE564B6E
:10395000554A1B68013B13601368002B00D086E0BA
:10396000524B1B68002B00D181E0514B98461B68DD
:10397000002B00D194E04F4B4F4F99464F4B9A4646
:103980004F4B019300239B464346DB68DB68D869B5
:10399000196A9A6A81604860180054681830844235
:1039A00000D177E059469962116801391160986831
:1039B000D9685A6981604860181D8446506860451E
:1039C00066D01168013911604A46D96A126891427D
:1039D00001D94A46116066468A0052189200BC1806
:1039E000606885689860DD6085686E6086605C618F
:1039F000BB580133BB5053461B68DB6A994241D91F
:103A00000122019B1A6043461B68002BBCD12D4B41
:103A10001A681268002A3FD01B68DB681A682A4BB4
:103A20001A602A4F3C68002C17D00123019E98464B
:103A300008E0FFF735FD002801D043463360013C24
:103A4000002C09D0184B1B68002BF2D03B68013CBE
:103A500001333B60002CF5D13C60019B1B68002BBF
:103A600005D0164B01241B68FEF756FE00E000242B
:103A7000FEF76AFE200003B0F0BCBB46B246A94682
:103A8000A046F0BD43461B68002B00D07CE7BEE794
:103A9000516096E7516085E70B4B013A1A60C0E729
:103AA000074B0193BDE7C046AC220220A4220220AE
:103AB00030230220B4220220E81E0020D01E002065
:103AC00084230220D81E00201C2302202C23022045
:103AD000F0B5C646040000B5002821D0174A136887
:103AE00001331360164B00211E68164B164D1F68DC
:103AF000164BA4191B682A6898466D232868D15470
:103B00000430FFF7F1F82B6829685C600431A642A5
:103B10000BD94046FFF7D0F8FFF710FF002801D17E
:103B2000FEF7FAFD80BCB846F0BD3800FFF7C4F8D8
:103B3000074B1A689442EFD21C60EDE7AC220220DA
:103B400078230220D81E0020D01E0020E01E002076
:103B50001C230220014B18687047C04678230220BE
:103B6000014B18687047C046A4220220064B10B5CE
:103B70001B68002B02D1FFF793FC10BD034A002005
:103B8000136801331360F8E7AC2202202C230220D3
:103B9000194B30B51B68002B03D00122174B1A605C
:103BA00030BD164A164C13602268164891008B18D7
:103BB0009B00C558002D07D1143BC3181968143B4E
:103BC000013A0029FAD091008918890045186B68DC
:103BD00008315B6841186B608B4205D0D9680A4B8D
:103BE000196022601B68DBE7EB68D9686B60064BE5
:103BF000196022601B68D3E7AC22022084230220D4
:103C0000B4220220E81E0020D01E0020F0B5C646D7
:103C1000204D0C00296800B51831FFF74DF81E4BF8
:103C200000211E681D4B1F681D4B1B682A689846A3
:103C30006D232868D1540430FFF756F8631C15D063
:103C40002B682968A4195C600431A64205D9404656
:103C5000FFF732F880BCB846F0BD3800FFF72CF80B
:103C6000104B1A689442F5D21C60F3E70E4B29689A
:103C70005A6890688A602968C86029689068043129
:103C800041602968043191602A6853611A680132E1
:103C90001A60DFE7D01E002078230220D81E002003
:103CA000E01E00201C230220502302208023F0B5B8
:103CB000C6462A4C15001B0622680B4300B59361CB
:103CC000226843689968D361226811622268996802
:103CD00018324A602268002118329A60236898627C
:103CE0000368013303601E4B1E681E4B1F681E4B8A
:103CF0001B68226898466D232068D1540430FEF773
:103D0000F3FF6B1C15D023682168AD195D60043189
:103D1000AE4205D94046FEF7CFFF80BCB846F0BDA5
:103D20003800FEF7C9FF114B1A689542F5D21D60A5
:103D3000F3E70F4B21685A6890688A602168C86071
:103D400021689068043141602168043191602268E3
:103D500053611A6801321A60DFE7C046D01E0020A6
:103D600078230220D81E0020E01E00201C23022001
:103D700050230220F0B5C6462F4C43680D00216841
:103D800000B59E68CB6121680E6221689E6818317B
:103D90007160216818319960236898620368013363
:103DA0000360002A23D0254B00211B68244B1B688D
:103DB000244B1B686D2322682068D1540430FEF721
:103DC00093FF214B21685A6890688A602168C86017
:103DD0002168906804314160216804319160226853
:103DE00053611A6801321A6080BCB846F0BD134BAB
:103DF0001E68134BAD191F68124B1B68216898464B
:103E00006D232068CA540430FEF76EFF23685D609E
:103E1000B5420AD3216838000431FEF74DFF0B4B41
:103E20001A689542E0D21D60DEE721684046043101
:103E3000FEF742FFD8E7C046D01E002078230220BC
:103E4000D81E0020E01E0020502302201C23022048
:103E5000C368F0B5DB68D869196A9A6A81604860FE
:103E6000180054681830844245D0002199621168C6
:103E700001391160264A1268002A2CD19968D86845
:103E80005A698860D8681D1D41605168A94234D0C4
:103E90001168013911601F4AD96A1068814228D817
:103EA0008A001D4C52189200A618706887689860A6
:103EB000DF6087687D6085605E61A3580133A35031
:103EC000164B00201B68DB6A8B4203D20122144B85
:103ED00001301A60F0BD134A51688C68D9611C62C8
:103EE0008C686060886011689A6201311160D96ADB
:103EF000E6E71160D4E75160B7E711685060013917
:103F00001160044AD96A10688142C9D9F1E7C046F4
:103F1000AC220220B4220220E81E0020D01E002085
:103F2000842302203023022080231B06F0B50B439C
:103F30008468416802690360C3688C60846861605A
:103F40005168814230D0002101611168D86801397F
:103F5000116099685A698860D8681D1D4160516870
:103F6000A94223D0116801391160114AD96A106839
:103F7000814200D911608A000E4C52189200A61896
:103F8000706887689860DF6087687D6085605E61C3
:103F9000A3580133A350084B1B68DB6A994202D92E
:103FA0000122064B1A60F0BD5460CCE75060D9E79F
:103FB000B4220220E81E0020D01E0020842302200C
:103FC000034B1B680360034B1B6843607047C0468C
:103FD0002023022078230220F8B50E000700FEF708
:103FE000A7FB6D23164C174A21681568ED5C002D60
:103FF00007D0002101241268D154FEF7A5FB200050
:10400000F8BD33685A1C19D00F487A688446056891
:104010003868A84205D08A4203D8002301243360BF
:10402000EBE78D1AAB42F8D95B1A9B1833606346F5
:104030001B683B60236800247B60DEE70024DCE72C
:1040400078230220D01E0020202302200122014BD1
:104050001A60704784230220014B18687047C046DD
:10406000D01E002070B5041E08D0036DC26AC16C5A
:10407000013B03658A4201D0002B01D0002070BDB6
:10408000051D2800FEF730FE2023E26C9B1AA36179
:104090000B4BE26219688A4200D91A609300094901
:1040A0009B189B00C81842689668A260E6609668F4
:1040B00075609560CA58606101320120CA50DEE720
:1040C000B4220220E81E0020044B1A681968906987
:1040D0001A682023C96A5B1A93617047D01E0020BA
:1040E000F0B5CD4BDE4657464E4645469946CB4B3E
:1040F000E0B59A46CA4B89B09B464B461B681C6884
:10410000002C00D1EBE0DB681C68FFF70FFCFFF729
:1041100021FDC44B01901B680293029A904200D289
:10412000F0E0C04A1060844200D85CE10022019BAC
:10413000E11A5B461868FFF7C9F8FFF7FFFB002894
:1041400000D12EE11022002104A8FDF797FF5B4665
:104150000022186804A9FEF7B5FF0028CDD0049B03
:104160000193002B5CDB069F002FF0D07B69002BB6
:1041700002D0381DFEF7B8FDFFF7ECFCA94B01900B
:104180001B680293029A904258D3A64B019A1A6078
:10419000049B092BDBD8A44A9B00D3589F462822B6
:1041A0000123B85C05990343BB54BA69019C8B1881
:1041B0007B603F61A34200D986E0611A8A4219D828
:1041C000410700D5F0E0012398432733F854380025
:1041D0003B6A9847BBE7282101227B5C13437B5451
:1041E000059B0199BB615A187A603F618A4270D879
:1041F000002BACD05346391D1868FEF75DFDA6E7CD
:1042000028220121BB5C8B43BB54A0E72823FB5C25
:104210009A0700D4C1E0012293432732BB5496E7AA
:10422000079B0193069B01990293059B02980393B8
:104230009847049B0193002B89DB94E74B461B684E
:104240001A68002A39D0B8460BE00122934327327E
:10425000A354236A200098474B461B681A68002A1B
:104260002AD0DB68DC681E68271D3800FEF73CFD9D
:1042700028230422E35C1A42E7D0A3692461F518DD
:10428000F64365609E420AD32E00F643236A20005F
:104290009847A3692461ED186560B342F4D9534689
:1042A00039001868FEF708FD236A200098474B463E
:1042B0001B681A68002AD4D1474651464A46096805
:1042C00011605246136060E7A14202D9994200D8BA
:1042D00076E74B46391D1868FEF7EEFC37E7FFF727
:1042E00025FBFFF737FC4F4B02001B680190029340
:1042F000834207D84B4B1A6053461B681A685342D7
:104300005A4114E74B461B681A68002A39D0282204
:1043100090460BE0012293434246A354236A2000B7
:1043200098474B461B681A68002A2AD0DB68DC686D
:104330001E68271D3800FEF7D7FC43460422E35CC5
:104340001A42E7D0A3692461F518F6436560B342C9
:104350000AD82E00F643236A20009847A3692461F7
:10436000ED186560B342F4D9534639001868FEF77A
:10437000A3FC236A200098474B461B681A68002A52
:10438000D4D151464A460968116052461360254B04
:10439000019A1A60FFF7D2FAD4E6380000F06CF9FF
:1043A000D5E6FEF7B9F9CDE6019D07E0EB1A934299
:1043B00013D33B6A380098472300BA699C187C6085
:1043C0003F61A542F2D29D4201D2A342F1D94B46B0
:1043D000391D1868FEF770FCF9E65346391D186858
:1043E000FEF76AFCF3E6FFF7A9FA4B461B68DB68A9
:1043F000DD682F1D3800FEF777FC2822AB5C5907DB
:1044000006D401218B43AB5428002B6A984799E6C8
:10441000B846019F11E0C046D41E0020E41E0020D3
:104420007C230220142302202C7200103C1BA34288
:1044300013D828002B6A98473400AB692D61E61821
:104440006E60BE42F2D9BC4201D9B442F1D94B46AA
:1044500041461868FEF730FCD6E7534641461868D7
:10446000FEF72AFCD0E7C04670B582B0FEF760F9CF
:10447000174C2368002B12D0FEF766F92368002042
:10448000002B0AD0134B802201931F231249009363
:1044900012480023D200FFF7D3F802B070BD104ECF
:1044A0003000FEF7EDFB0F4D2800FEF7E9FB0E4B49
:1044B00000221E600D4B10210A201D60FEF716FD24
:1044C00020600028D8D00A49FEF78AFED4E7C0460B
:1044D0007C230220802302205C720010E140001047
:1044E000B8220220CC220220D41E0020E41E00208C
:1044F0005472001010B514001A00022384B05B42FD
:104500000093054B019002911868694600230394BB
:10451000FEF73CFD04B010BD7C230220F8B50E0070
:10452000EFF3108772B60C4B84009B681D59A942AB
:1045300005D00A4B9D420BD3094B9D4208D2064B36
:104540009B681E51BFF35F8F87F310882800F8BD6A
:10455000FDF7BAF9F3E7C04600ED00E0C001001036
:10456000CC010010F0B5C646431E00B50A3314D87E
:1045700007231A00083004000240034205D001332B
:104580009B1ADA43824208D3C418FFF7CFF9344AA2
:1045900027001568002D29D10EE0FFF7C7F9304A32
:1045A0001368002B06D00025FFF7C8F9280080BC4F
:1045B000B846F0BD0027002407202A49084248D108
:1045C00080239B02CD1808000B000021264E083DD9
:1045D000716030600726B5431560244AEB1A1360FA
:1045E000234A69602960136043600560002FDADDAB
:1045F0001F4F3E68A642D6D31B48036804E01A68E2
:10460000002A04D0180013005968A142F7D3AB4226
:10461000C9D01D001A680835904602600A1B102A8E
:1046200005D919194A6042460A60016021000F4A03
:10463000761A10683E60864200D21660802212060A
:10464000114300221A600B4A59601368013313604A
:10465000AAE7CB1D8343802080020D181800B4E721
:10466000DC1E00208822002048230220182302207C
:104670000C2302202423022070B5002807D008381C
:1046800043680400002B02DA0268002A00D070BDE3
:104690005B005B0843600500FFF748F9154A616855
:1046A00013685B181360144B1A001B689C42FBD8FC
:1046B00050681618B44218D0681883420AD02B608C
:1046C000AA4200D015600D4A136801331360FFF74A
:1046D00035F9DCE70A4800688342F0D058681B6867
:1046E0008446614469602B60EAE70918150051604F
:1046F000E2E7C0460C2302204823022028230220A0
:10470000DC1E002010B5024800F0D8F810BDC046ED
:104710006821002030B54B1E012900D1A7E0664A70
:1047200011780D112C0030349F2900D9A2E00470BB
:10473000012B00D1BEE00F21147821400C00303451
:10474000092900DD98E04470022B00D1B2E05478D2
:104750002511290030319F2C00D990E08170032B66
:1047600000D1A7E00F2121400C003034092900DDE1
:1047700087E0C470042B00D19CE0947825112900B7
:1047800030319F2C00D97FE00171052B00D191E0E1
:104790000F2121400C003034092900DD76E04471FE
:1047A000062B00D186E0D4782511290030319F2CCA
:1047B00000D96EE08171072B00D17BE00F212140F1
:1047C0000C003034092966DCC471082B00D171E07B
:1047D00014792511290030319F2C5FD80172092BE3
:1047E00068D00F2121400C003034092958DC447274
:1047F0000A2B5FD054792511290030319F2C52D8D3
:1048000081720B2B56D00F2121400C003034092926
:104810004BDCC4720C2B4DD094792511290030311A
:104820009F2C00D9073101730D2B43D00F2121405C
:104830000C003034092901DD37310C0044730E2B94
:1048400038D0D1790C11220030329F2900D907329B
:1048500082730F2B2ED00F220A4011003731092A04
:1048600001DC30321100C173102B23D01030002333
:10487000037030BD07345AE737310C0063E7073166
:104880006CE737310C0074E707317DE737310C00F6
:1048900085E707318EE737310C0095E707319DE753
:1048A00037310C00A3E70731AAE737310C00C47297
:1048B0000C2BB1D1C018DAE76821002030B50025F3
:1048C00089B004000922002101A80095FDF7D6FB5C
:1048D0000922002105A80495FDF7D0FB4B236A4669
:1048E0006846137004A90D2202F02EFB1521082240
:1048F00020006944FDF7C8FB09B030BD7047C046D1
:104900000022014B1A7070478D2302204B79002042
:10491000FF2B0BD18B79002B08D1CB79012B05D143
:10492000082A03D98A78024B09301A707047C046AA
:104930008D2302200120704710B5012909D11549A6
:104940005379107909781B0203430020994202D061
:1049500010BD0120FCE75378012B08D0022BF7D1C2
:10496000002064220021FCF7FFFE0120F0E7D3784D
:1049700091781B021943DB0507D54A0A1000012371
:104980001A407E331940FCF775FF01204A0A404265
:10499000F5E7C0468D23022000487047847200105E
:1049A00070B5050014000120012909D153780020B9
:1049B000012B05D1637912791B021343072B00D019
:1049C00070BD21002800024A9F3301F065F9F7E726
:1049D000A872001001230370004870476472001031
:1049E00048780B788A780002184312041043962204
:1049F000CB7810B51B060343D200934200D010BD04
:104A00000022012011004042FCF734FF024B1860E5
:104A1000024B19607047C046381A0020401A002027
:104A200010B5024B1878FBF705FE10BD8E2302204F
:104A3000154B70B51A68002A22D0EFF3108172B6B8
:104A400010680028FCD0BFF35F8F00220F48596028
:104A500002701B68BFF35F8F1A6081F31088002417
:104A600000250B4E3078FBF7D9FD002804D1002437
:104A700000252900200070BD3078FBF7DBFDF8E74A
:104A8000FA240025A400ECE7B41E00208F230220A6
:104A90008E23022070B5040000200E0001F026FADB
:104AA000002835D0002001F037FA002830D0FCF77C
:104AB00055FC0023184A12184B41002B24DB174DDC
:104AC000280002F071FA002822D0002001F00EFA2E
:104AD00000280BD1012000210324404200F00EFCED
:104AE0006442280002F038FA200070BD002001F076
:104AF00013FA0028EED021003200002001F018FA4D
:104B0000041EEED1033CECE70122054B5242D6E7EE
:104B100003246442E8E7C04640420F0078220020A8
:104B2000FFFFFF7F10B5FCF719FC00230E4A121897
:104B30004B41002B13DB0D4C200002F035FA00280E
:104B40000CD001200021404200F0D8FB002001F0F1
:104B500039FA0028F5D1200002F0FEF910BD01223B
:104B6000034B5242E7E7C04640420F007822002044
:104B7000FFFFFF7FF8B5DE46574680B505000C0005
:104B8000FCF7ECFB0023364A12184B41002B5ADB92
:104B9000344908008A4602F007FA002803D1C0BC55
:104BA000BB46B246F8BD002001F0A0F900284ED067
:104BB0000026002C43DD2C4B9B4614E0A919002055
:104BC00001F03CFA070001200021404200F096FB72
:104BD000002001F0F7F9FCF7C1FB234BF619186030
:104BE0005960B4422BDD002001F04AFAA71B0200F5
:104BF000B84200DD3A00002AE0D101200021404205
:104C000000F07CFB002001F0DDF9002001F06EF9DE
:104C1000002814D0002001F033FA0028E1D1FCF77D
:104C20009DFB5B460F001A685B68002184460F48B5
:104C300012184B419F4202D8D3D19445D1D9504646
:104C400002F08AF9ABE70122094B5242A0E70020AB
:104C50000021054B18605960504602F07DF99EE72F
:104C600040420F00782200203812002020A10700C7
:104C7000FFFFFF7F30B52A4C85B00021200002F0F5
:104C800083F900281CD1274B1A68002A16D0EFF3AD
:104C9000108172B610680028FCD0BFF35F8F01242A
:104CA0002148596002781B68D2B20470BFF35F8F4D
:104CB0000020186081F31088002A17D005B030BD9D
:104CC00001200021404200F019FB002001F024F9EE
:104CD0000500200002F040F9002DEFD0134B1B68B7
:104CE000002BEBD0124A10689847E7E7FCF7A6F9CB
:104CF0000400FCF733FBFA220023920012184B4108
:104D0000002B09DB012102910021019109492000BA
:104D10000091FCF797F9D1E70122074B5242F1E7E6
:104D200078220020B41E00208F230220381A002091
:104D3000401A0020314A0010FFFFFF7FD02310B53A
:104D40001B0684B01C68FCF779F9FCF775FAA042E1
:104D500002D0002004B010BD294B002100201B7898
:104D600001F082FC27480368002B41D00120FBF7AB
:104D7000E9FEFF23244C254920701840FBF774FC02
:104D800020780121FBF738FC0520FBF75BFC0028AD
:104D900021D1082200211E48FDF770F9FCF74EF9D9
:104DA0000400FCF7DBFAFA220023920012184B41B0
:104DB000002B20DB012102910021019115492000E7
:104DC0000091FCF73FF90028C3DB13480121FDF7F0
:104DD0007FFA0120BEE70120FBF7DEFB01000C4853
:104DE000FBF71EFF002205200C49FBF767FCECE7F0
:104DF000FBF7F8FEBAE70122094B5242DAE7C04658
:104E000088750010782200208E230220754C001037
:104E1000B41E0020314A001070100020214A0010FA
:104E2000FFFFFF7F00487047F07300100048704795
:104E30009C73001070B5040017480378002B21D034
:104E4000002C06D1C1241548154BA40043800480D2
:104E500070BD052C1DD8134B1048A400E558811CCB
:104E6000002304E001330A800231132B0ED0EA5CE8
:104E7000DCB2002AF6D1C0230134E4B264009B0006
:104E80001C43E4E71121FFF745FCD9E7CA24A4003D
:104E9000DDE70020DCE7C04688220220741A0020EB
:104EA0000904000004740010F8B500F045F90C2363
:104EB000194DFF22AB6705201849FBF7FFFB184C83
:104EC000402200212000FDF7D9F8402700230126C9
:104ED0002121144A66702783A260136063545F31F6
:104EE000618445396354104A10496360E260278742
:104EF000A1620B606362E26202F01EF880239B05F0
:104F00002E64EB6490230A4A0120EA508022094B68
:104F10005202DA64F8BDC04600001150C9040020F6
:104F2000A81A00208400105000011050800010507A
:104F300010D001000020115010B501210520FBF711
:104F40005BFB10BD10B500220021024800F014F9EF
:104F500010BDC046C81A0020044B1970002904D0A7
:104F600080219023024A8902D15070478923022070
:104F7000002011500B785B0602D14B78052B00D036
:104F800070478A78014B1A60FAE7C046000011505A
:104F9000F0B5C646C87800B58007830F1800012B0E
:104FA00061D08F780C794B797F211B0239402343E4
:104FB0004E00FC09334D32195201AA18977001278F
:104FC0006740577000275B055B0DD7701383D07661
:104FD000B846CA00012C32D02B4FBC468F01624428
:104FE000BC46AC446746BA6047461760002932D0D9
:104FF000264AC90090466246414451603F223F33F1
:105000009343022838D0224937190A687F01D31800
:105010000B602049EF19FA608B422FD834196401D4
:105020002D19EB7E1C499B064A4013438022012028
:10503000120613436A68136080BCB846F0BD174F70
:10504000BC468F016244BC46AC446746BA624746E0
:105050001760002909D1002364012D196B60104BE2
:105060000120EB60E8E70020E6E70B4AC900904624
:10507000624641445162C1E75B00C4E7FCF724FC8F
:10508000FA68CBE7A81A00208400105004001050E2
:10509000B01E0020FF0F1050000010508000105074
:1050A0000001105010B501F047FF10BD10B57F2072
:1050B0000C0020404000E409110000191A00034BC5
:1050C0004001C01800F058F8012010BDA81A0020B7
:1050D0007F22130010B50B400A420BD0C909802271
:1050E000580040180649400140181201002101F003
:1050F00073FF10BD02220348C909521A8266EEE707
:10510000A81A0020002011507F22100010B508407E
:105110000A4200D110BD0023C909400040180449CB
:105120004001081800220349C37001F055FFF1E760
:10513000A81A0020FFF7FFFF80220A4B520410B587
:105140001A60094B09491A6010000B689843FBD19B
:105150008022002152010648FCF790FF0922054BEE
:105160005A6710BD00E0004000F0004008C0004059
:10517000000010500000115070B5837E04000D0037
:105180001600002B17D10023E38201332000A682F2
:10519000A376256101F0C8FE002804D08021902369
:1051A000084A8902D150200001F01EFF002805D0D6
:1051B0000123237770BD01F007FFE4E7200001F031
:1051C000FBFEF7E7002011507047C0467047C0460D
:1051D00000207047002070477047C0467047C046A7
:1051E0007047C0467047C046024B5878431E9841EE
:1051F000C0B270474C150020024B18784007C00F12
:105200007047C0464C150020F0B546464F46D6467E
:10521000C0B52F4B814698461B780E000124FF2B0A
:1052200043D1002940D0002154222A48FCF726FF10
:105230000022294C294B20001A70FBF7D3FC284B85
:105240001C60284C20001430FBF7DAFC200001F031
:10525000F7FD254B254D1C60254B002B04D0280065
:10526000FFF7B8FB234B18602349002400238A462C
:105270002A78204F10E03A68630194466344002B7B
:1052800012D05B68002B0FD098472A780134E4B223
:10529000511C2300A1420EDBA242ECD89B1A5B01F9
:1052A00053445B68002BEFD100242000E0BCBA46D9
:1052B000B146A846F0BD43464A46310048461A70FA
:1052C000FFF7F2FD041EEFD04846FFF735FEECE78E
:1052D000A41000204C150020441500208A23022031
:1052E000A015002088100020A4150020882302208B
:1052F000D54900109C13002020750010F0B5DE4643
:1053000057464E464546E0B5C44B8BB01B78FF2B45
:1053100000D12EE1C24BC34D9A4607AC2E6872698C
:10532000EFF3108172B61368002BFCD0BFF35F8FD0
:10533000B1613000210001F0C5FB7269B369BFF3B0
:105340005F8F0021116083F31088002800D110E1E5
:105350006378082BE2D852469B00D3589F46636877
:10536000002BDBD0A0689847D8E77F232179AE4E89
:105370000B405800CA093618B618320001273032DF
:105380001079B843107110790337B8431071002BAE
:1053900000D1F7E0A54A337D1278934200D3E5E0CF
:1053A000A34A5B011268D318002B00D1E1E09E698B
:1053B00062792078A368B047B0E79E4A1378002B43
:1053C00000D1D6E01378013BDBB213701378002BC9
:1053D000A4D10122944B01211B7893481343924A94
:1053E000914E13703423D25C8A43C254C25C0420B1
:1053F0008243F2540133F25C8A43F254F25C8243FA
:10540000F254237800209B4600F0AEFC6022237902
:105410001A40602A0DD0402A00D1BEE0DB06DB0E28
:10542000012B00D10EE1022B00D1D0E0002B00D1E6
:10543000BFE020780021FFF74BFE80212078FFF7A6
:1054400047FE6BE7784E3378DB0700D466E7FFF75B
:10545000C9FE63E7744BDB78DB0700D45EE7606866
:10546000FFF7B4FE5AE7704E3378DB0700D455E7F8
:1054700030780007C00FFFF7B3FE4FE76E496B4E61
:1054800023788B466A499846894631003278002352
:1054900046460027884611E04A4612687B0194463A
:1054A0006344002B6CD0DB683000984743461A7881
:1054B0000137FFB2511C3B008F4241DC9742EBD3D6
:1054C0009B1A5B015B44EEE75B49584E23788B46A1
:1054D00057499846894631003278002346460027CE
:1054E000884611E04A4612687B0194466344002BCB
:1054F00021D0DB683000984743461A780137FFB265
:10550000511C3B008F4205DCBA42EBD89B1A5B0171
:105510005B44EEE7444E542200213000FCF7AEFD20
:105520001022FF21301DFCF7A9FD30002022FF21B1
:105530001430FCF7A3FD00F00DFCFFF74FFEEDE685
:10554000394E542200213000FCF798FD1022FF2133
:10555000301DFCF793FD30002022FF211430FCF7B2
:105560008DFD00F0F7FB2379B370D7E6501C98420D
:105570000EDA0BB0F0BCBB46B246A946A046F0BD61
:10558000294EEEE762792078A36800F001FCC5E6B9
:105590009B1A294A5B01D31809E7284800F0E4FB6D
:1055A0000121584608AAFFF7FBF9002800D0B5E60C
:1055B0003FE7202A00D14EE1002A00D039E7637985
:1055C000092B00D935E71E4A9B00D3589F4670230C
:1055D000217A0B4200D02CE77F26CB0998460E405B
:1055E000114B76009B1943441F7D104B1B789F4243
:1055F0005ED3581CB84200DA49E1FF1A0E4B7F0116
:10560000DF19002A00D146E1786900F0ADFB0121E5
:1056100058467B6908AA9847C7E7C046A4100020EF
:1056200078740010A41500204C1500208823022057
:105630009C1300208A23022020750010A14900102D
:105640009C740010237A0F2B00D9F2E6D64A9446B8
:10565000D64A63441B791278934234D3511C994241
:1056600000DAE6E6D24E9B1A5B01F618706900F08C
:105670007BFB01215846736908AA9847002800D08F
:105680004CE66022160023791E401A4200D0D0E674
:1056900063790A3B012B00D9CBE600F065FB637907
:1056A0000A2B00D150E1584608A900F0DDFA35E692
:1056B000C04B7F011B68DF19002A00D1EBE0002FEF
:1056C00000D1B6E6A0E7BB4A5B011668F618002ECB
:1056D00000D1AEE6CAE7B44BA7795B789F42E2D02F
:1056E000B14B5B78002B00D06AE1AF4B5F70002FAD
:1056F00000D155E1781EC0B2FFF798FB002800D119
:105700004AE143780493022B00D045E10121C2799C
:10571000931152110B400A4012015B011343A24A3C
:105720002F3112788A4313439F4A137009239946F5
:10573000C37882781B021343C31802939D4B8144A4
:1057400098464F46029BBB4200D806E101227B7877
:1057500000920B2B04D1FB7800933B78FF187B78E9
:10576000042B00D018E1029BB946DB1B9BB20393CC
:105770008E4B1E7800231F0001931BE042461268E7
:105780007B01D618002E00D106E149465846039AFF
:10579000336998470590082803D9039A824200D3B9
:1057A000DEE0824B01371E78FFB2731C01979F42E7
:1057B00000DDF1E0BE42E1D8019B9E1B7C4B7601EF
:1057C0009C466644E1E7784B06AA5B780232137088
:1057D0005846012308A900F05FFA9FE5E088030A14
:1057E000C0B20F2B00D924E673499A008A58974615
:1057F00008A800F0BFFA5846A179FFF7A3FB0222E0
:10580000694B1B781343684A137087E5E388012BC3
:1058100000D00EE60822644B1B789343624A137053
:1058200041E70220604B197806AB9A1C8B06890869
:10583000DB0F01400B4313805846022308A900F0F8
:105840002BFA6BE5E388012B00D0F2E50822564BDA
:105850001B781343E2E7237A0F2B00D9E9E5524A7C
:105860009446524A63441B791278934227D2514A94
:105870005B011668F618002E00D1DAE5706900F0B9
:1058800073FA01215846736908AA98478DE60027E4
:10589000002A00D0CDE50222637999469343012B7B
:1058A00016D04B46002B00D0C3E53F4B06AA9B19F0
:1058B000434430331B7902329B07DB0FBBE7511C9B
:1058C000994200DAB5E53A4E9B1A5B01F618D5E726
:1058D000E388002B12D14B46012B24D0374B18788C
:1058E000FFF7F6FB0221304B9B19434430331A7902
:1058F0000A4301211A711A790A431A71002F00D143
:105900000CE5786900F030FA7B6908AA0121584655
:105910009847002000F028FA3523234AD35CDB07A0
:1059200000D5FBE4BFE6254B1878FFF7EDFB02211D
:105930001D4B9B19434430331A798A4349461A71E7
:105940001A798A431A71D9E706AB9A1C5846012383
:1059500008A9167000F0A0F9E0E4FFF73DFCA2E60C
:105960003B004F469946009B012B00D189E0009BEC
:10597000002B75D000234E46B97805E0167101332F
:10598000009ADBB293426AD207485A188446D2B2D0
:1059900062441079FF28F1D00023034A537048E590
:1059A000FFF71CFC7FE6C0464C1500208823022030
:1059B000207500109C130020C4740010A410002057
:1059C00000215846FFF7C8FA5846FFF76BFB454BD6
:1059D000454E9B7845490093894600233100327833
:1059E00088461E0011E04A461268730194466344DB
:1059F000002B22D0DB685846984743461A78013678
:105A0000F6B2511C33008E4207DCB242EBD89B1A2F
:105A1000374A5B0194466344ECE754220021314845
:105A2000FCF72CFB2F4B1022FF21181DFCF726FB47
:105A30002022FF212F48FCF721FB2A4B009A9A7065
:105A400053E6FEF7A9FF021E00D1F2E4D378917865
:105A50001B020B43584608A900F01EF9A5E5B14604
:105A6000059E4B4632003900224800F0A1FEB446A4
:105A70001D4B019A1B7867440133934200DB61E6BA
:105A80008AE71D4B32699A4200D073E7049B00936A
:105A900070E7FFF79DFB021E00D1CAE45846137859
:105AA00008A900F0F9F880E52189FFF7C3F9021E83
:105AB000F4D1BEE4022B0FD0FFF78CFB021EC5D140
:105AC000B7E4FFF7AFF9021E00D1B2E41223584643
:105AD00008A900F0E1F868E5FFF7A8F9021EB5D1C2
